:020000040800F2
:1000000000280020550B0008F90A0008FF0A000824
:10001000050B00080B0B0008110B00080000000086
:10002000000000000000000000000000170B0008A6
:10003000230B0008000000002F0B00083B0B0008FA
:100040009D0B00089D0B00089D0B00089D0B0008F0
:100050009D0B00089D0B00089D0B00089D0B0008E0
:100060009D0B00089D0B00089D0B00089D0B0008D0
:100070009D0B00089D0B00089D0B00089D0B0008C0
:100080009D0B00089D0B00089D0B00089D0B0008B0
:100090009D0B00089D0B00089D0B00089D0B0008A0
:1000A0009D0B00089D0B00089D0B00089D0B000890
:1000B0009D0B00089D0B0008000000009D0B000830
:1000C0009D0B000800000000000000009D0B0008D0
:1000D000000000009D0B00089D0B000800000000C0
:1000E0009D0B00089D0B00089D0B00080000000000
:1000F0000000000000000000000000000000000000
:0C01000000000000000000005FF808F1A3
:10010C0010B5054C237833B9044B13B10448AFF345
:10011C0000800123237010BD0C00002000000000A3
:10012C00C019000808B5034B1BB103490348AFF3D2
:10013C00008008BD0000000010000020C01900085D
:10014C0080B582B000AF78607B68013B082B00F271
:10015C00928101A252F823F089010008DD01000808
:10016C003102000885020008D90200082D0300089E
:10017C0081030008D50300082904000801224FF46C
:10018C000051D44800F0EAFF01228021D14800F050
:10019C00E5FF00224FF48071CE4800F0DFFF002213
:1001AC004FF40071CB4800F0D9FF01224FF480616D
:1001BC00C84800F0D3FF01224FF40061C54800F09D
:1001CC00CDFF01224FF48051C24800F0C7FF7CE103
:1001DC0000228021BF4800F0C1FF01224FF40071C2
:1001EC00BC4800F0BBFF00224FF48061B94800F01E
:1001FC00B5FF00224FF40061B64800F0AFFF0022BB
:10020C004FF40051B34800F0A9FF00224FF4807165
:10021C00B04800F0A3FF01224FF48051AD4800F02C
:10022C009DFF52E100228021AA4800F097FF002296
:10023C004FF48071A74800F091FF00224FF4007139
:10024C00A44800F08BFF00224FF48061A14800F01D
:10025C0085FF01224FF400619E4800F07FFF0122D0
:10026C004FF480519B4800F079FF00224FF400516D
:10027C00984800F073FF28E101228021954800F096
:10028C006DFF00224FF48071924800F067FF00224E
:10029C004FF400718F4800F061FF01224FF4806130
:1002AC008C4800F05BFF01224FF40061894800F09C
:1002BC0055FF00224FF48051864800F04FFF00227A
:1002CC004FF40051834800F049FFFEE000228021EA
:1002DC00804800F043FF01224FF480717D4800F00C
:1002EC003DFF00224FF400717A4800F037FF0022E6
:1002FC004FF48061774800F031FF01224FF4006128
:10030C00744800F02BFF00224FF48051714800F02C
:10031C0025FF00224FF400516E4800F01FFFD4E07F
:10032C00002280216B4800F019FF01224FF48071EC
:10033C00684800F013FF00224FF40071654800F08C
:10034C000DFF00224FF48061624800F007FF00228D
:10035C004FF400615F4800F001FF00224FF4805120
:10036C005C4800F0FBFE00224FF40051594800F0AD
:10037C00F5FEAAE000228021564800F0EFFE002294
:10038C004FF48071534800F0E9FE00224FF40071E5
:10039C00504800F0E3FE01224FF480614D4800F01C
:1003AC00DDFE01224FF400614A4800F0D7FE012225
:1003BC004FF48051474800F0D1FE01224FF4005118
:1003CC00444800F0CBFE80E000228021414800F040
:1003DC00C5FE00224FF480713E4800F0BFFE0022A3
:1003EC004FF400713B4800F0B9FE00224FF48061DD
:1003FC00384800F0B3FE00224FF40061354800F09D
:10040C00ADFE00224FF48051324800F0A7FE0022CE
:10041C004FF400512F4800F0A1FE56E001224FF49A
:10042C0000612C4800F09AFE00228021294800F03F
:10043C0095FE00224FF48071264800F08FFE0022BA
:10044C004FF40071234800F089FE00224FF48061C4
:10045C00204800F083FE00224FF480511D4800F02C
:10046C007DFE00224FF400511A4800F077FE4FF049
:10047C00FF337B6029E000228021164800F06EFEDD
:10048C0000224FF48071134800F068FE00224FF4F4
:10049C000071104800F062FE00224FF480610D489C
:1004AC0000F05CFE00224FF400610A4800F056FE9A
:1004BC0000224FF48051074800F050FE00224FF408
:1004CC000051044800F04AFE00BF00BF0837BD468B
:1004DC0080BD00BF000C014080B582B000AF7860D9
:1004EC007B68013B082B00F25C8101A252F823F0DF
:1004FC002105000869050008B1050008F905000888
:10050C004106000889060008D106000819070008F2
:10051C006107000801224021A44800F01FFE0122BF
:10052C000121A24800F01AFE002202219F4800F08F
:10053C0015FE002204219D4800F010FE0122082126
:10054C009A4800F00BFE01221021984800F006FE9C
:10055C0001222021954800F001FE22E10022012118
:10056C00924800F0FBFD01220421904800F0F6FDBA
:10057C00002208218D4800F0F1FD002210218B484B
:10058C0000F0ECFD00224021884800F0E7FD00223D
:10059C000221864800F0E2FD01222021834800F070
:1005AC00DDFDFEE000220121804800F0D7FD002295
:1005BC0002217E4800F0D2FD002204217B4800F08D
:1005CC00CDFD00220821794800F0C8FD0122102140
:1005DC00764800F0C3FD01222021744800F0BEFDD6
:1005EC0000224021714800F0B9FDDAE0012201211E
:1005FC006E4800F0B3FD002202216C4800F0AEFD05
:10060C0000220421694800F0A9FD01220821674855
:10061C0000F0A4FD01221021644800F09FFD00228F
:10062C002021624800F09AFD002240215F4800F032
:10063C0095FDB6E0002201215C4800F08FFD0122FF
:10064C0002215A4800F08AFD00220421574800F08C
:10065C0085FD00220821554800F080FD0122102163
:10066C00524800F07BFD00222021504800F076FD1E
:10067C00002240214D4800F071FD92E00022012142
:10068C004A4800F06BFD01220221484800F066FD4B
:10069C0000220421454800F061FD00220821434856
:1006AC0000F05CFD00221021404800F057FD0022B4
:1006BC0020213E4800F052FD002240213B4800F032
:1006CC004DFD6EE000220121384800F047FD00226C
:1006DC000221364800F042FD00220421334800F08C
:1006EC003DFD01220821314800F038FD0122102186
:1006FC002E4800F033FD012220212C4800F02EFD65
:10070C0001224021294800F029FD4AE00022012164
:10071C00264800F023FD00220221244800F01EFD93
:10072C0000220421214800F019FD002208211F4855
:10073C0000F014FD002210211C4800F00FFD0022D7
:10074C0020211A4800F00AFD00224021174800F031
:10075C0005FD26E001221021144800F0FFFC0022C8
:10076C000121124800F0FAFC002202210F4800F08F
:10077C00F5FC002204210D4800F0F0FC00220821B9
:10078C000A4800F0EBFC00222021084800F0E6FCAF
:10079C0000224021054800F0E1FC4FF0FF337B6064
:1007AC0000BF00BF0837BD4680BD00BF000C014034
:1007BC0080B588B000AF00F0EDF900F0CDF800F096
:1007CC0007F90023FB610123BB6106237B61042332
:1007DC003B610623FB600423BB6003237B60FB6946
:1007EC00002B07D17B69012B04D1FB690133FB6121
:1007FC00BB687B61FB69012B07D17B69012B04D1A1
:10080C00FB690133FB617B687B61FB69022B06D1C1
:10081C007B69012B03D10023FB61FB687B61BB6906
:10082C00012B06D13B69012B03D10223BB617B68F1
:10083C003B61BB69022B06D13B69012B03D1002321
:10084C00BB61FB683B61BB69002B06D13B69012B8B
:10085C0003D10123BB61BB683B61FB69002B0ED14B
:10086C00012240213B4800F079FC012280213948CB
:10087C0000F074FC00222021364800F06FFCFB696C
:10088C00012B0ED101224021324800F067FC0122DD
:10089C002021304800F062FC002280212D4800F01D
:1008AC005DFCFB69022B0ED100224021294800F08F
:1008BC0055FC01222021274800F050FC0122802108
:1008CC00244800F04BFCBB69002B0ED101221021F7
:1008DC00204800F043FC002204211E4800F03EFC9E
:1008EC00012208211B4800F039FCBB69012B0ED1F9
:1008FC0001221021174800F031FC01220421154877
:10090C0000F02CFC00220821124800F027FCBB69E7
:10091C00022B0ED1002210210E4800F01FFC0122E8
:10092C0004210C4800F01AFC01220821094800F0AF
:10093C0015FC7B69013B7B613B69013B3B61386981
:10094C00FFF7FEFB7869FFF7C7FD4FF47A7000F0F4
:10095C0083F944E70008014080B590B000AF07F17F
:10096C00180328220021184601F01CF83B1D002218
:10097C001A605A609A60DA601A610223BB61012323
:10098C00BB621023FB6200237B6307F1180318463C
:10099C0000F0FCFB0346002B01D000F06FF80F2396
:1009AC007B600023BB600023FB6000233B610023C2
:1009BC007B613B1D0021184600F068FE0346002BAE
:1009CC0001D000F05BF800BF4037BD4680BD000091
:1009DC0080B586B000AF07F1080300221A605A6098
:1009EC009A60DA60224B9B69214A43F004039361BD
:1009FC001F4B9B6903F004037B607B681C4B9B695A
:100A0C001B4A43F008039361194B9B6903F00803DD
:100A1C003B603B6800224FF6FC71164800F09EFBD1
:100A2C00002243F6FF71144800F098FB4FF6FC735C
:100A3C00BB600123FB6000233B6102237B6107F158
:100A4C00080319460B4800F00FFA43F6FF73BB601E
:100A5C000123FB6000233B6102237B6107F1080348
:100A6C001946054800F000FA00BF1837BD4680BD96
:100A7C000010024000080140000C014080B400AF9F
:100A8C0072B600BFFEE7000080B485B000AF154B16
:100A9C009B69144A43F001039361124B9B6903F069
:100AAC000103BB60BB680F4BDB690E4A43F08053FC
:100ABC00D3610C4BDB6903F080537B607B680A4B82
:100ACC005B68FB60FB6823F0E063FB60FB6843F052
:100ADC008063FB60044AFB68536000BF1437BD465B
:100AEC0080BC7047001002400000014080B400AF91
:100AFC00FEE780B400AFFEE780B400AFFEE780B441
:100B0C0000AFFEE780B400AFFEE780B400AF00BFDB
:100B1C00BD4680BC704780B400AF00BFBD4680BCF2
:100B2C00704780B400AF00BFBD4680BC704780B535
:100B3C0000AF00F075F800BF80BD80B400AF00BFFF
:100B4C00BD4680BC704700000C480D490D4A00237F
:100B5C0002E0D458C4500433C4188C42F9D30A4A66
:100B6C000A4C002301E013600432A242FBD3FFF7CE
:100B7C00E4FF00F0F3FEFFF71BFE704700000020BF
:100B8C000C000020001A00080C0000202C00002093
:100B9C00FEE7000080B500AF084B1B68074A43F026
:100BAC0010031360032000F02BF90F2000F008F85D
:100BBC00FFF76AFF0023184680BD00BF00200240EB
:100BCC0080B582B000AF7860124B1A68124B1B785C
:100BDC0019464FF47A73B3FBF1F3B2FBF3F31846F7
:100BEC0000F035F90346002B01D001230EE07B68A1
:100BFC000F2B0AD8002279684FF0FF3000F00BF968
:100C0C00064A7B681360002300E00123184608376E
:100C1C00BD4680BD0000002008000020040000201C
:100C2C0080B400AF054B1B781A46054B1B68134468
:100C3C00034A136000BFBD4680BC7047080000200B
:100C4C002800002080B400AF024B1B681846BD463C
:100C5C0080BC70472800002080B584B000AF78605D
:100C6C00FFF7F0FFB8607B68FB60FB68B3F1FF3FF8
:100C7C0005D00A4B1B781A46FB681344FB6000BF77
:100C8C00FFF7E0FF0246BB68D31AFA689A42F7D81E
:100C9C0000BF00BF1037BD4680BD00BF080000205C
:100CAC0080B485B000AF78607B6803F00703FB600D
:100CBC000C4BDB68BB60BA684FF6FF031340BB609C
:100CCC00FB681A02BB68134343F0BF6343F4003361
:100CDC00BB60044ABB68D36000BF1437BD4680BC00
:100CEC00704700BF00ED00E080B400AF044BDB6840
:100CFC001B0A03F007031846BD4680BC704700BFB3
:100D0C0000ED00E080B483B000AF03463960FB71A6
:100D1C0097F90730002B0ADB3B68DAB20C4997F9DC
:100D2C0007301201D2B20B4483F800230AE03B686F
:100D3C00DAB20849FB7903F00F03043B1201D2B27B
:100D4C000B441A7600BF0C37BD4680BC704700BF01
:100D5C0000E100E000ED00E080B489B000AFF86085
:100D6C00B9607A60FB6803F00703FB61FB69C3F1B0
:100D7C000703042B28BF0423BB61FB690433062B38
:100D8C0002D9FB69033B00E000237B614FF0FF328B
:100D9C00BB6902FA03F3DA43BB681A407B699A40D9
:100DAC004FF0FF317B6901FA03F3D9437B680B40A9
:100DBC00134318462437BD4680BC704780B582B0BB
:100DCC0000AF78607B68013BB3F1807F01D30123D6
:100DDC000FE00A4A7B68013B53600F214FF0FF3054
:100DEC00FFF790FF054B00229A60044B07221A6014
:100DFC00002318460837BD4680BD00BF10E000E058
:100E0C0080B582B000AF78607868FFF749FF00BF0B
:100E1C000837BD4680BD80B586B000AF0346B960CB
:100E2C007A60FB7300237B61FFF75EFF78617A6861
:100E3C00B9687869FFF790FF024697F90F301146B1
:100E4C001846FFF75FFF00BF1837BD4680BD80B561
:100E5C0082B000AF78607868FFF7B0FF03461846A1
:100E6C000837BD4680BD000080B48BB000AF786001
:100E7C00396000237B6200233B6248E101227B6ADC
:100E8C0002FA03F3FB613B681B68FA691340BB6110
:100E9C00BA69FB699A4240F037813B685B68A34AA8
:100EAC0093425ED0A14A934275D8A14A934258D03E
:100EBC009F4A93426FD89F4A934252D09D4A934285
:100ECC0069D89D4A93424CD09B4A934263D89B4A23
:100EDC00934246D0994A93425DD8122B2AD8122BB2
:100EEC0059D801A252F823F06F0F0008490F0008DF
:100EFC005B0F00089D0F0008A30F0008A30F00084C
:100F0C00A30F0008A30F0008A30F0008A30F0008ED
:100F1C00A30F0008A30F0008A30F0008A30F0008DD
:100F2C00A30F0008A30F0008A30F0008510F00081F
:100F3C00650F0008824A934213D02CE03B68DB68B3
:100F4C003B6229E03B68DB6804333B6224E03B688E
:100F5C00DB6808333B621FE03B68DB680C333B62A9
:100F6C001AE03B689B68002B02D104233B6213E020
:100F7C003B689B68012B05D108233B627B68FA69AF
:100F8C001A6109E008233B627B68FA695A6103E045
:100F9C0000233B6200E000BFBB69FF2B01D87B68DC
:100FAC0001E07B6804337B61BB69FF2B02D87B6A51
:100FBC009B0002E07B6A083B9B003B617B691A68E3
:100FCC000F213B6901FA03F3DB431A40396A3B6991
:100FDC0001FA03F31A437B691A603B685B6803F000
:100FEC008053002B00F09080564B9B69554A43F080
:100FFC0001039361534B9B6903F00103BB60BB6816
:10100C00514A7B6A9B08023352F82330FB607B6A9F
:10101C0003F003039B000F2202FA03F3DB43FA688D
:10102C001340FB607B68494A93420DD07B68484A69
:10103C00934207D07B68474A934201D1022304E0D4
:10104C00032302E0012300E000237A6A02F003028A
:10105C0092009340FA681343FB603B497B6A9B0800
:10106C000233FA6841F823203B685B6803F4803351
:10107C00002B06D0384B1A683749BB6913430B60F9
:10108C0006E0354B1A68BB69DB43334913400B60F0
:10109C003B685B6803F40033002B06D02E4B5A6878
:1010AC002D49BB6913434B6006E02B4B5A68BB6957
:1010BC00DB43294913404B603B685B6803F48013A6
:1010CC00002B06D0244B9A682349BB6913438B60D1
:1010DC0006E0214B9A68BB69DB431F4913408B60C8
:1010EC003B685B6803F40013002B06D01A4BDA68DC
:1010FC001949BB691343CB6006E0174BDA68BB692F
:10110C00DB4315491340CB607B6A01337B623B6840
:10111C001A687B6A22FA03F3002B7FF4AFAE00BF90
:10112C0000BF2C37BD4680BC704700BF000032109A
:10113C0000003110000022100000211000001210DD
:10114C000000111000100240000001400008014096
:10115C00000C0140001001400004014080B483B039
:10116C0000AF78600B467B8013467B707B78002B3E
:10117C0003D07A887B681A6103E07B881A047B6849
:10118C001A6100BF0C37BD4680BC704780B586B075
:10119C0000AF78607B68002B01D101236CE27B6887
:1011AC001B6803F00103002B00F08780924B5B68F7
:1011BC0003F00C03042B0CD08F4B5B6803F00C0377
:1011CC00082B12D18C4B5B6803F48033B3F5803F52
:1011DC000BD1894B1B6803F40033002B6CD07B685C
:1011EC005B68002B68D1012346E27B685B68B3F532
:1011FC00803F06D1804B1B687F4A43F480331360D9
:10120C002EE07B685B68002B0CD17B4B1B687A4A09
:10121C0023F480331360784B1B68774A23F48023C4
:10122C0013601DE07B685B68B3F5A02F0CD1724B8B
:10123C001B68714A43F4802313606F4B1B686E4A22
:10124C0043F4803313600BE06B4B1B686A4A23F446
:10125C0080331360684B1B68674A23F48023136048
:10126C007B685B68002B13D0FFF7ECFC386108E05F
:10127C00FFF7E8FC02463B69D31A642B01D9032320
:10128C00FAE15D4B1B6803F40033002BF0D014E043
:10129C00FFF7D8FC386108E0FFF7D4FC02463B6945
:1012AC00D31A642B01D90323E6E1534B1B6803F4D7
:1012BC000033002BF0D100E000BF7B681B6803F00B
:1012CC000203002B63D04C4B5B6803F00C03002B28
:1012DC000BD0494B5B6803F00C03082B1CD1464B1D
:1012EC005B6803F48033002B16D1434B1B6803F06F
:1012FC000203002B05D07B681B69012B01D0012355
:10130C00BAE13D4B1B6823F0F8027B685B69DB009C
:10131C00394913430B603AE07B681B69002B20D0E2
:10132C00364B01221A60FFF78DFC386108E0FFF79D
:10133C0089FC02463B69D31A022B01D903239BE19A
:10134C002D4B1B6803F00203002BF0D02A4B1B68BB
:10135C0023F0F8027B685B69DB00274913430B60C1
:10136C0015E0264B00221A60FFF76CFC386108E090
:10137C00FFF768FC02463B69D31A022B01D9032301
:10138C007AE11D4B1B6803F00203002BF0D17B6844
:10139C001B6803F00803002B3AD07B689B69002B79
:1013AC0019D0174B01221A60FFF74CFC386108E08A
:1013BC00FFF748FC02463B69D31A022B01D90323E1
:1013CC005AE10D4B5B6A03F00203002BF0D00120B5
:1013DC0000F0A6FA1CE00A4B00221A60FFF732FC60
:1013EC0038610FE0FFF72EFC02463B69D31A022B43
:1013FC0008D9032340E100BF001002400000424224
:10140C00800442429E4B5B6A03F00203002BE9D13D
:10141C007B681B6803F00403002B00F0A6800023FC
:10142C00FB75974BDB6903F08053002B0DD1944B6C
:10143C00DB69934A43F08053D361914BDB6903F032
:10144C008053BB60BB680123FB758E4B1B6803F498
:10145C008073002B18D18B4B1B688A4A43F4807322
:10146C001360FFF7EFFB386108E0FFF7EBFB024678
:10147C003B69D31A642B01D90323FDE0814B1B6814
:10148C0003F48073002BF0D07B68DB68012B06D152
:10149C007B4B1B6A7A4A43F0010313622DE07B6895
:1014AC00DB68002B0CD1764B1B6A754A23F00103C9
:1014BC001362734B1B6A724A23F0040313621CE021
:1014CC007B68DB68052B0CD16D4B1B6A6C4A43F0B7
:1014DC00040313626A4B1B6A694A43F001031362EB
:1014EC000BE0674B1B6A664A23F001031362644BE3
:1014FC001B6A634A23F0040313627B68DB68002BCE
:10150C0015D0FFF79FFB38610AE0FFF79BFB024603
:10151C003B69D31A41F28832934201D90323ABE0E1
:10152C00574B1B6A03F00203002BEED014E0FFF7BD
:10153C0089FB38610AE0FFF785FB02463B69D31A49
:10154C0041F28832934201D9032395E04C4B1B6A3C
:10155C0003F00203002BEED1FB7D012B05D1484B90
:10156C00DB69474A23F08053D3617B68DB69002B2E
:10157C0000F08180424B5B6803F00C03082B61D0B8
:10158C007B68DB69022B46D13F4B00221A60FFF7C8
:10159C0059FB386108E0FFF755FB02463B69D31A4B
:1015AC00022B01D9032367E0354B1B6803F0007352
:1015BC00002BF0D17B681B6AB3F5803F08D1304B10
:1015CC005B6823F400327B689B682D4913434B60A6
:1015DC002B4B5B6823F474127B68196A7B685B6A1B
:1015EC000B43274913434B60274B01221A60FFF72B
:1015FC0029FB386108E0FFF725FB02463B69D31A4B
:10160C00022B01D9032337E01D4B1B6803F0007339
:10161C00002BF0D02FE01C4B00221A60FFF712FBBE
:10162C00386108E0FFF70EFB02463B69D31A022B28
:10163C0001D9032320E0124B1B6803F00073002B2D
:10164C00F0D118E07B68DB69012B01D1012313E099
:10165C000B4B5B68FB60FB6803F480327B681B6A96
:10166C009A4206D1FB6803F470127B685B6A9A425B
:10167C0001D0012300E0002318461837BD4680BD79
:10168C0000100240007000406000424280B584B0FF
:10169C0000AF786039607B68002B01D10123D0E06A
:1016AC006A4B1B6803F007033A689A4210D9674BE0
:1016BC001B6823F0070265493B6813430B60634BBF
:1016CC001B6803F007033A689A4201D00123B8E083
:1016DC007B681B6803F00203002B20D07B681B681F
:1016EC0003F00403002B05D0594B5B68584A43F4B4
:1016FC00E06353607B681B6803F00803002B05D084
:10170C00534B5B68524A43F460535360504B5B68D5
:10171C0023F0F0027B689B684D4913434B607B6858
:10172C001B6803F00103002B40D07B685B68012B26
:10173C0007D1474B1B6803F40033002B15D1012351
:10174C007FE07B685B68022B07D1414B1B6803F081
:10175C000073002B09D1012373E03D4B1B6803F090
:10176C000203002B01D101236BE0394B5B6823F0A2
:10177C0003027B685B68364913434B60FFF762FAE0
:10178C00F8600AE0FFF75EFA0246FB68D31A41F2F2
:10179C008832934201D9032353E02D4B5B6803F04D
:1017AC000C027B685B689B009A42EBD1274B1B6851
:1017BC0003F007033A689A4210D2244B1B6823F0BB
:1017CC00070222493B6813430B60204B1B6803F054
:1017DC0007033A689A4201D0012332E07B681B6808
:1017EC0003F00403002B08D0194B5B6823F4E06270
:1017FC007B68DB68164913434B607B681B6803F0FE
:10180C000803002B09D0124B5B6823F460527B68F1
:10181C001B69DB000E4913434B6000F021F80246B4
:10182C000B4B5B681B0903F00F030A49CB5C22FAD4
:10183C0003F3094A1360094B1B681846FFF7C0F9FC
:10184C00002318461037BD4680BD00BF0020024063
:10185C0000100240E81900080000002004000020DD
:10186C0090B48AB000AF2A4B3C1D0FCB84E80F001C
:10187C0040F201233B800023FB610023BB6100236A
:10188C007B6200237B6100233B62224B5B68FB6124
:10189C00FB6903F00C03042B02D0082B03D02DE0C2
:1018AC001D4B3B622DE0FB699B0C03F00F0307F112
:1018BC002802134413F8243C7B61FB6903F4803346
:1018CC00002B13D0134B5B685B0C03F0010307F187
:1018DC002802134413F8283CBB617B690E4A02FBB7
:1018EC0003F2BB69B2FBF3F37B6204E07B690B4A46
:1018FC0002FB03F37B627B6A3B6202E0064B3B62BA
:10190C0000BF3B6A18462837BD4690BC704700BFE5
:10191C00D81900080010024000127A0000093D009E
:10192C0080B485B000AF78600A4B1B680A4AA2FBF2
:10193C0003235B0A7A6802FB03F3FB6000BFFB68BE
:10194C005A1EFA60002BF9D100BF00BF1437BD46F8
:10195C0080BC704700000020D34D621070B500268B
:10196C000C4D0D4C641BA410A64209D100F022F8BA
:10197C0000260A4D0A4C641BA410A64205D170BD6A
:10198C0055F8043B98470136EEE755F8043B984769
:10199C000136F2E7F8190008F8190008F8190008E0
:1019AC00FC19000803460244934200D1704703F827
:1019BC00011BF9E7F8B500BFF8BC08BC9E467047A0
:0C19CC00F8B500BFF8BC08BC9E46704790
:1019D80002030405060708090A0B0C0D0E0F101068
:1019E80000000000000000000102030406070809C7
:0419F80031010008B1
:0419FC000D010008D1
:0C1A00000024F4001000000001000000B1
:0400000508000B558F
:00000001FF
